012018010202AALR3       010ALLIAR      ON      NM   R$  000000000149400000000015160000000001470000000000148400000000014890000000001475000000000148900403000000000000094500000000000140299100000000000000009999123100000010000000000000BRAALRACNOR6100
012018010296AALR3F      020ALLIAR      ON      NM   R$  000000000147900000000014930000000001479000000000148600000000014800000000001473000000000151600007000000000000000225000000000000334384000000000000009999123100000010000000000000BRAALRACNOR6100
012018010202AAPL34      010APPLE       DRN          R$  000000000568100000000056810000000005630000000000563800000000056300000000005500000000000563000004000000000000000900000000000005074700000000000000009999123100000010000000000000BRAAPLBDR004123
012018010296AAPL34F     020APPLE       DRN          R$  000000000568100000000065000000000005654000000000596300000000056540000000005459000000000620000007000000000000000061000000000000363770000000000000009999123100000010000000000000BRAAPLBDR004123
012018010210ABCB2       010ABC BRASIL  DIR PRE N2   R$  000000000041100000000004200000000000411000000000041400000000004200000000000413000000000060000006000000000000001200000000000000497700000000000000009999123100000010000000000000BRABCBD12PR6128
012018010296ABCB2F      020ABC BRASIL  DIR PRE N2   R$  000000000040100000000004200000000000401000000000041200000000004200000000000408000000000042000014000000000000000222000000000000091601000000000000009999123100000010000000000000BRABCBD12PR6128
012018010202ABCB4       010ABC BRASIL  PN  EJS N2   R$  000000000168300000000016850000000001656000000000166500000000016580000000001657000000000166002024000000000000326300000000000543316000000000000000009999123100000010000000000000BRABCBACNPR4129
012018010296ABCB4F      020ABC BRASIL  PN  EJS N2   R$  000000000167500000000016800000000001655000000000166700000000016680000000001661000000000166800047000000000000000940000000000001567461000000000000009999123100000010000000000000BRABCBACNPR4129
012018010212ABCP11      010FII ABC IMOBCI  ER       R$  000000000161000000000016190000000001595000000000160800000000016000000000001600000000000160900116000000000000014513000000000023350308000000000000009999123100000010000000000000BRABCPCTF000267
012018010202ABEV3       010AMBEV S/A   ON  EJ       R$  000000000213300000000021750000000002117000000000216000000000021690000000002169000000000217033607000000000012717900000000027481342800000000000000009999123100000010000000000000BRABEVACNOR1118
012018010296ABEV3F      020AMBEV S/A   ON  EJ       R$  000000000215000000000021960000000002109000000000215900000000021960000000002166000000000219600354000000000000007019000000000015155535000000000000009999123100000010000000000000BRABEVACNOR1118
012018010262ABEV3T      030AMBEV S/A   ON  EJ    030R$  000000000218600000000021870000000002184000000000218500000000021850000000000000000000000000000004000000000000004700000000000010271940000000000000009999123100000010000000000000BRABEVACNOR1118
012018010262ABEV3T      030AMBEV S/A   ON  EJ    062R$  000000000217000000000021710000000002170000000000217000000000021710000000000000000000000000000002000000000000239000000000000518653063000000000000009999123100000010000000000000BRABEVACNOR1118
012018010262ABEV3T      030AMBEV S/A   ON  EJ    120R$  000000000219800000000021990000000002198000000000219800000000021990000000000000000000000000000002000000000000005600000000000012310603000000000000009999123100000010000000000000BRABEVACNOR1118
012018010278ABEVA21     070ABEV  FM/EJ ON        000R$  000000000008900000000001100000000000089000000000010000000000001100000000000050000000000016000011000000000000067500000000000006758800000000000206602018011500000010000000000000BRABEVACNOR1116
012018010278ABEVA22     070ABEV    /EJ ON        000R$  000000000000400000000000050000000000004000000000000400000000000050000000000000000000000001500002000000000000005500000000000000024000000000000221602018011500000010000000000000BRABEVACNOR1117
012018010278ABEVA51     070ABEV  FM/EJ ON        000R$  000000000001300000000000280000000000013000000000002000000000000250000000000022000000000002500078000000000000209200000000000004315700000000000216602018011500000010000000000000BRABEVACNOR1117
012018010278ABEVA52     070ABEV  FM/EJ ON        000R$  000000000000200000000000020000000000002000000000000200000000000020000000000000000000000001000002000000000000006000000000000000012000000000000226602018011500000010000000000000BRABEVACNOR1117
012018010278ABEVA61     070ABEV    /EJ ON        000R$  000000000004600000000000660000000000045000000000005400000000000610000000000048000000000010000020000000000000360000000000000019442000000000000211602018011500000010000000000000BRABEVACNOR1117
012018010278ABEVA70     070ABEV    /EJ ON        000R$  000000000019000000000002000000000000183000000000019300000000001960000000000180000000000021200039000000000000091600000000000017727800000000000196602018011500000010000000000000BRABEVACNOR1115
012018010278ABEVA71     070ABEVE    /EJON        000R$  000000000003000000000000300000000000030000000000003000000000000300000000000000000000000005000001000000000000000500000000000000015000000000000214102018011500000010000000000000BRABEVACNOR1117
012018010278ABEVA80     070ABEVE    /EJON        000R$  000000000013000000000001300000000000130000000000013000000000001300000000000035000000000000000002000000000000008000000000000001040000000000000204102018011500000010000000000000BRABEVACNOR1117
012018010278ABEVA81     070ABEVE    /EJON        000R$  000000000005000000000000810000000000050000000000005400000000000810000000000050000000000000000003000000000000006100000000000000332800000000000209102018011500000010000000000000BRABEVACNOR1117
012018010278ABEVB21     070ABEV  FM/EJ ON        000R$  000000000010300000000001210000000000101000000000010800000000001210000000000084000000000015800009000000000000086400000000000009375700000000000208202018021900000010000000000000BRABEVACNOR1117
012018010278ABEVB22     070ABEV  FM/EJ ON        000R$  000000000004000000000000490000000000037000000000004800000000000490000000000002000000000000000007000000000002014900000000000098641500000000000218202018021900000010000000000000BRABEVACNOR1117
012018010278ABEVB23     070ABEV  FM/EJ ON        000R$  000000000000700000000000070000000000007000000000000700000000000070000000000000000000000002200016000000000000094600000000000000662200000000000228202018021900000010000000000000BRABEVACNOR1117
012018010278ABEVB51     070ABEV    /EJ ON        000R$  000000000005300000000000780000000000053000000000007700000000000780000000000020000000000000000004000000000000010100000000000000785300000000000213202018021900000010000000000000BRABEVACNOR1117
012018010278ABEVB52     070ABEV    /EJ ON        000R$  000000000002500000000000250000000000025000000000002500000000000250000000000001000000000003000001000000000000000100000000000000002500000000000223202018021900000010000000000000BRABEVACNOR1117
012018010278ABEVB71     070ABEVE    /EJON        000R$  000000000004000000000000450000000000040000000000004400000000000450000000000000000000000000000002000000000000001100000000000000049000000000000215702018021900000010000000000000BRABEVACNOR1117
012018010282ABEVM21     080ABEVE    /EJON        000R$  000000000000600000000000060000000000005000000000000500000000000050000000000000000000000000000004000000000000031700000000000000182500000000000206602018011500000010000000000000BRABEVACNOR1116
012018010282ABEVM80     080ABEVE    /EJON        000R$  000000000000500000000000050000000000005000000000000500000000000050000000000000000000000000000001000000000000001000000000000000005000000000000204102018011500000010000000000000BRABEVACNOR1117
012018010282ABEVM81     080ABEVE  FM/EJON        000R$  000000000000600000000000060000000000006000000000000600000000000060000000000000000000000000000004000000000000040000000000000000240000000000000209102018011500000010000000000000BRABEVACNOR1117
012018010282ABEVN22     080ABEVE  FM/EJON        000R$  000000000004600000000000460000000000037000000000004100000000000420000000000000000000000000000008000000000000075500000000000003104400000000000218202018021900000010000000000000BRABEVACNOR1117
012018010282ABEVN71     080ABEVE    /EJON        000R$  000000000003000000000000300000000000030000000000003000000000000300000000000000000000000000000002000000000000024000000000000000720000000000000215702018021900000010000000000000BRABEVACNOR1117
012018010202ADHM3       010ADVANCED-DH ON           R$  000000000020000000000002000000000000198000000000019900000000001990000000000198000000000020300006000000000000004600000000000000917600000000000000009999123100000010000000000000BRADHMACNOR9101
012018010296ADHM3F      020ADVANCED-DH ON           R$  000000000019000000000001900000000000190000000000019000000000001900000000000190000000000020900001000000000000000013000000000000002470000000000000009999123100000010000000000000BRADHMACNOR9101
012018010212AEFI11      010FII AESAPAR CI  ER       R$  000000001585500000000159990000000015810000000001586300000000158370000000015837000000001590000082000000000000002427000000000038501249000000000000009999123100000010000000000000BRAEFICTF002173
012018010202AFLT3       010AFLUENTE T  ON           R$  000000000049800000000004980000000000498000000000049800000000004980000000000498000000000064800001000000000000001000000000000000498000000000000000009999123100000010000000000000BRAFLTACNOR1111
012018010212AGCX11      010FII AG CAIXACI  ER       R$  000000012440100000001280000000000124401000000012609800000001252060000000125206000000012600000056000000000000000251000000000031650710000000000000009999123100000010000000000000BRAGCXCTF003162
012018010202AGRO3       010BRASILAGRO  ON      NM   R$  000000000124500000000012800000000001240000000000125800000000012670000000001267000000000127000138000000000000039100000000000049224200000000000000009999123100000010000000000000BRAGROACNOR7107
012018010296AGRO3F      020BRASILAGRO  ON      NM   R$  000000000125000000000012980000000001220000000000124200000000012450000000001200000000000127900006000000000000000051000000000000063370000000000000009999123100000010000000000000BRAGROACNOR7107
012018010212ALMI11      010FII TORRE ALCI           R$  000000017779900000001785000000000173001000000017773100000001785000000000178000000000017850000033000000000000000113000000000020083624000000000000009999123100000010000000000000BRALMICTF003249
012018010296ALPA3F      020ALPARGATAS  ON      N1   R$  000000000171500000000017150000000001715000000000171500000000017150000000001615000000000170000001000000000000000005000000000000008575000000000000009999123100000010000000000000BRALPAACNOR0223
012018010202ALPA4       010ALPARGATAS  PN      N1   R$  000000000173300000000017610000000001733000000000175100000000017600000000001747000000000176001313000000000000263700000000000461939300000000000000009999123100000010000000000000BRALPAACNPR7223
012018010296ALPA4F      020ALPARGATAS  PN      N1   R$  000000000171000000000017550000000001710000000000174000000000017550000000001739000000000178000013000000000000000416000000000000723907000000000000009999123100000010000000000000BRALPAACNPR7223
012018010202ALSC3       010ALIANSCE    ON      NM   R$  000000000182000000000018250000000001781000000000180100000000018050000000001794000000000180501412000000000000339500000000000611760200000000000000009999123100000010000000000000BRALSCACNOR0110
012018010296ALSC3F      020ALIANSCE    ON      NM   R$  000000000181600000000018160000000001787000000000179600000000018150000000001780000000000181500006000000000000000176000000000000316220000000000000009999123100000010000000000000BRALSCACNOR0110
012018010202ALUP11      010ALUPAR      UNT     N2   R$  000000000184500000000018500000000001829000000000184000000000018360000000001836000000000184503055000000000000686900000000001263968000000000000000009999123100000010000000000000BRALUPCDAM15106
012018010296ALUP11F     020ALUPAR      UNT     N2   R$  000000000184500000000018500000000001839000000000184200000000018500000000001838000000000185000042000000000000000834000000000001536993000000000000009999123100000010000000000000BRALUPCDAM15106
012018010202ALUP3       010ALUPAR      ON      N2   R$  000000000078000000000007950000000000778000000000078600000000007950000000000700000000000089900004000000000000000600000000000000472100000000000000009999123100000010000000000000BRALUPACNOR8106
012018010202ALUP4       010ALUPAR      PN      N2   R$  000000000053500000000005350000000000535000000000053500000000005350000000000535000000000054800001000000000000000100000000000000053500000000000000009999123100000010000000000000BRALUPACNPR5106
012018010296ALUP4F      020ALUPAR      PN      N2   R$  000000000055000000000005500000000000550000000000055000000000005500000000000550000000000069900001000000000000000001000000000000000550000000000000009999123100000010000000000000BRALUPACNPR5106
012018010202AMAR3       010LOJAS MARISAON      NM   R$  000000000073000000000007790000000000728000000000076100000000007790000000000777000000000077903414000000000001242900000000000945877000000000000000009999123100000010000000000000BRAMARACNOR4112
012018010296AMAR3F      020LOJAS MARISAON      NM   R$  000000000074300000000007750000000000737000000000076300000000007750000000000758000000000077700055000000000000001470000000000001122117000000000000009999123100000010000000000000BRAMARACNOR4112
012018010262AMAR3T      030LOJAS MARISAON      NM030R$  000000000077000000000007710000000000770000000000077000000000007710000000000000000000000000000008000000000000013300000000000010254013000000000000009999123100000010000000000000BRAMARACNOR4112
012018010202AMZO34      010AMAZON      DRN          R$  000000019212000000001940800000000192120000000019251200000001940800000000189879000000019762900002000000000000000500000000000096256000000000000000009999123100000010000000000000BRAMZOBDR002101
012018010296AMZO34F     020AMAZON      DRN          R$  000000019318500000001931850000000192500000000019288000000001925000000000192500000000000000000002000000000000000009000000000001735925000000000000009999123100000010000000000000BRAMZOBDR002101
012018010212ANCR11B     010FII ANCAR ICCI      MB   R$  000000020000000000002000000000000200000000000020000000000002000000000000200000000000000000000001000000000000000001000000000000200000000000000000009999123100000010000000000000BRANCRCTF001139
012018010202ANIM3       010ANIMA       ON      NM   R$  000000000282200000000028690000000002822000000000285000000000028500000000002847000000000285501936000000000000387400000000001104404700000000000000009999123100000010000000000000BRANIMACNOR6104
012018010296ANIM3F      020ANIMA       ON      NM   R$  000000000282000000000028990000000002754000000000283200000000028400000000002755000000000284000018000000000000000425000000000001203897000000000000009999123100000010000000000000BRANIMACNOR6104
012018010202ARZZ3       010AREZZO CO   ON  EJ  NM   R$  000000000547000000000056710000000005438000000000553900000000056300000000005630000000000563701615000000000000253500000000001404207300000000000000009999123100000010000000000000BRARZZACNOR3127
012018010296ARZZ3F      020AREZZO CO   ON  EJ  NM   R$  000000000547000000000057790000000005469000000000556500000000056950000000005605000000000569500025000000000000000499000000000002777134000000000000009999123100000010000000000000BRARZZACNOR3127
012018010202ATOM3       010ATOMPAR     ON           R$  000000000035000000000003530000000000337000000000034400000000003440000000000343000000000034400182000000000000168500000000000057994900000000000000009999123100000010000000000000BRATOMACNOR1102
012018010296ATOM3F      020ATOMPAR     ON           R$  000000000033000000000003740000000000330000000000036100000000003740000000000340000000000037400005000000000000000048000000000000017336000000000000009999123100000010000000000000BRATOMACNOR1102
012018010202ATTB34      010ATT INC     DRN          R$  000000001260000000000126000000000012579000000001259700000000125790000000000000000000001257900002000000000000000700000000000008817900000000000000009999123100000010000000000000BRATTBBDR007121
012018010202AZEV4       010AZEVEDO     PN           R$  000000000010200000000001020000000000102000000000010200000000001020000000000102000000000011000002000000000000001000000000000000102000000000000000009999123100000010000000000000BRAZEVACNPR7116
012018010202AZUL4       010AZUL        PN      N2   R$  000000000270000000000027370000000002689000000000271000000000027150000000002707000000000271502548000000000000668200000000001811247100000000000000009999123100000010000000000000BRAZULACNPR4100
012018010296AZUL4F      020AZUL        PN      N2   R$  000000000269800000000027180000000002695000000000270500000000027180000000002690000000000275400011000000000000000322000000000000871219000000000000009999123100000010000000000000BRAZULACNPR4100
012018010202BAUH4       010EXCELSIOR   PN           R$  000000000124500000000012450000000001200000000000121800000000012350000000001181000000000123500005000000000000000800000000000000974500000000000000009999123100000010000000000000BRBAUHACNPR3112
012018010296BAUH4F      020EXCELSIOR   PN           R$  000000000120000000000012000000000001200000000000120000000000012000000000001200000000000000000001000000000000000003000000000000003600000000000000009999123100000010000000000000BRBAUHACNPR3112
012018010202BAZA3       010AMAZONIA    ON           R$  000000000250500000000025100000000002501000000000250500000000025100000000002510000000000256800004000000000000000500000000000001252700000000000000009999123100000010000000000000BRBAZAACNOR0171
012018010296BAZA3F      020AMAZONIA    ON           R$  000000000269900000000026990000000002500000000000262800000000025000000000002502000000000269900007000000000000000069000000000000181366000000000000009999123100000010000000000000BRBAZAACNOR0171
012018010202BBAS3       010BRASIL      ON      NM   R$  000000000320900000000032930000000003209000000000327200000000032930000000003285000000000329322561000000000009178100000000030032079500000000000000009999123100000010000000000000BRBBASACNOR3273
012018010296BBAS3F      020BRASIL      ON      NM   R$  000000000320000000000032920000000003200000000000326700000000032920000000003285000000000329200410000000000000010634000000000034743727000000000000009999123100000010000000000000BRBBASACNOR3273
012018010262BBAS3T      030BRASIL      ON      NM016R$  000000000330500000000033060000000003305000000000330500000000033060000000000000000000000000000002000000000000018000000000000059493314000000000000009999123100000010000000000000BRBBASACNOR3273
012018010262BBAS3T      030BRASIL      ON      NM030R$  000000000322800000000033140000000003228000000000330300000000033140000000000000000000000000000008000000000000109100000000000360400240000000000000009999123100000010000000000000BRBBASACNOR3273
012018010262BBAS3T      030BRASIL      ON      NM090R$  000000000330900000000033100000000003309000000000330900000000033100000000000000000000000000000002000000000000001000000000000003309763000000000000009999123100000010000000000000BRBBASACNOR3273
012018010278BBASA1      070BBASE       ON      NM000R$  000000000001200000000000120000000000012000000000001200000000000120000000000000000000000003000002000000000000000900000000000000010800000000000345602018011500000010000000000000BRBBASACNOR3270
012018010278BBASA12     070BBAS        ON      NM000R$  000000000006800000000001000000000000068000000000008800000000000960000000000097000000000015500039000000000000085500000000000007560100000000000323102018011500000010000000000000BRBBASACNOR3271
012018010278BBASA13     070BBAS        ON      NM000R$  000000000003300000000000470000000000032000000000003900000000000460000000000046000000000005000213000000000000343200000000000013576600000000000333102018011500000010000000000000BRBBASACNOR3271
012018010278BBASA2      070BBASE       ON      NM000R$  000000000000900000000000090000000000008000000000000800000000000080000000000000000000000000800002000000000000001100000000000000008900000000000360602018011500000010000000000000BRBBASACNOR3270
012018010278BBASA3      070BBAS        ON      NM000R$  000000000030500000000003050000000000305000000000030500000000003050000000000000000000000034000002000000000000002000000000000000610000000000000298102018011500000010000000000000BRBBASACNOR3271
012018010278BBASA30     070BBAS        ON      NM000R$  000000000035000000000003500000000000350000000000035000000000003500000000000340000000000000000002000000000000001000000000000000350000000000000293102018011500000010000000000000BRBBASACNOR3265
012018010278BBASA31     070BBAS        ON      NM000R$  000000000015100000000002200000000000151000000000019500000000002200000000000190000000000022500046000000000000175400000000000034214700000000000308102018011500000010000000000000BRBBASACNOR3269
012018010278BBASA32     070BBASE       ON      NM000R$  000000000014500000000001680000000000135000000000015200000000001680000000000147000000000016800025000000000000078400000000000011930500000000000315602018011500000010000000000000BRBBASACNOR3267
012018010278BBASA33     070BBAS  FM    ON      NM000R$  000000000004700000000000730000000000047000000000006100000000000730000000000073000000000007500202000000000000658600000000000040221900000000000328102018011500000010000000000000BRBBASACNOR3271
012018010278BBASA34     070BBAS  FM    ON      NM000R$  000000000001900000000000280000000000018000000000002300000000000280000000000028000000000002900447000000000000746100000000000017896500000000000338102018011500000010000000000000BRBBASACNOR3271
012018010278BBASA35     070BBAS  FM    ON      NM000R$  000000000001000000000000110000000000009000000000001000000000000110000000000004000000000001100238000000000000146400000000000001496000000000000348102018011500000010000000000000BRBBASACNOR3271
012018010278BBASA36     070BBAS        ON      NM000R$  000000000000400000000000050000000000004000000000000400000000000050000000000000000000000000800026000000000000037600000000000000185800000000000358102018011500000010000000000000BRBBASACNOR3271
012018010278BBASA37     070BBAS        ON      NM000R$  000000000000300000000000030000000000002000000000000200000000000020000000000002000000000001000002000000000000000200000000000000000500000000000368102018011500000010000000000000BRBBASACNOR3271
012018010278BBASA38     070BBAS        ON      NM000R$  000000000000200000000000020000000000002000000000000200000000000020000000000001000000000000400001000000000000000100000000000000000200000000000378102018011500000010000000000000BRBBASACNOR3271
012018010278BBASA4      070BBAS        ON      NM000R$  000000000001500000000000180000000000012000000000001500000000000170000000000015000000000001700153000000000000097700000000000001533400000000000343102018011500000010000000000000BRBBASACNOR3271
012018010278BBASA5      070BBAS        ON      NM000R$  000000000000700000000000070000000000006000000000000600000000000060000000000004000000000001300002000000000000001700000000000000011700000000000353102018011500000010000000000000BRBBASACNOR3271
012018010278BBASA6      070BBAS        ON      NM000R$  000000000000300000000000050000000000003000000000000300000000000050000000000004000000000000500054000000000000331500000000000001297700000000000363102018011500000010000000000000BRBBASACNOR3271
012018010278BBASA62     070BBASE       ON      NM000R$  000000000009000000000001130000000000090000000000010500000000001130000000000035000000000013000024000000000000067700000000000007151300000000000320602018011500000010000000000000BRBBASACNOR3271
012018010278BBASA71     070BBASE       ON      NM000R$  000000000019600000000001960000000000196000000000019600000000001960000000000005000000000030000001000000000000000300000000000000058800000000000310602018011500000010000000000000BRBBASACNOR3271
012018010278BBASA72     070BBASE       ON      NM000R$  000000000007000000000000800000000000064000000000007300000000000790000000000062000000000008600039000000000000067700000000000004959500000000000325602018011500000010000000000000BRBBASACNOR3271
012018010278BBASA73     070BBASE       ON      NM000R$  000000000003000000000000350000000000025000000000003100000000000340000000000029000000000000000013000000000000022800000000000000715300000000000335602018011500000010000000000000BRBBASACNOR3272
012018010278BBASA8      070BBASE       ON      NM000R$  000000000004100000000000540000000000040000000000004900000000000530000000000000000000000007000024000000000000109800000000000005442000000000000330602018011500000010000000000000BRBBASACNOR3264
012018010278BBASA91     070BBASE       ON      NM000R$  000000000017500000000001750000000000175000000000017500000000001750000000000000000000000000000002000000000000019200000000000003360000000000000313102018011500000010000000000000BRBBASACNOR3271
012018010278BBASA92     070BBAS  FM    ON      NM000R$  000000000011800000000001320000000000113000000000012100000000001290000000000134000000000014600046000000000000114600000000000013975500000000000318102018011500000010000000000000BRBBASACNOR3271
012018010278BBASB15     070BBASE       ON      NM000R$  000000000007300000000000950000000000073000000000009200000000000940000000000000000000000000000021000000000000213400000000000019756900000000000342902018021900000010000000000000BRBBASACNOR3263
012018010278BBASB16     070BBASE       ON      NM000R$  000000000011500000000001150000000000113000000000011300000000001130000000000000000000000000000002000000000000002300000000000000261500000000000337902018021900000010000000000000BRBBASACNOR3265
012018010278BBASB17     070BBASE       ON      NM000R$  000000000006800000000000680000000000064000000000006400000000000640000000000045000000000009000002000000000000002400000000000000155200000000000347902018021900000010000000000000BRBBASACNOR3265
012018010278BBASB18     070BBASE       ON      NM000R$  000000000004800000000000490000000000048000000000004800000000000490000000000020000000000000000002000000000000011500000000000000554500000000000357902018021900000010000000000000BRBBASACNOR3265
012018010278BBASB2      070BBAS  FM    ON      NM000R$  000000000015200000000001730000000000150000000000016000000000001700000000000171000000000020000039000000000000116000000000000018604000000000000325402018021900000010000000000000BRBBASACNOR3271
012018010278BBASB3      070BBAS  FM    ON      NM000R$  000000000010700000000001270000000000107000000000011100000000001270000000000090000000000000000014000000000000045300000000000005050700000000000335402018021900000010000000000000BRBBASACNOR3270
012018010278BBASB32     070BBAS  FM    ON      NM000R$  000000000021600000000002340000000000206000000000022100000000002340000000000170000000000037000018000000000000033300000000000007390400000000000315402018021900000010000000000000BRBBASACNOR3266
012018010278BBASB33     070BBAS        ON      NM000R$  000000000012700000000001500000000000127000000000013500000000001470000000000147000000000021800018000000000000058900000000000007952200000000000330402018021900000010000000000000BRBBASACNOR3270
012018010278BBASB34     070BBAS        ON      NM000R$  000000000008600000000001000000000000086000000000009700000000001000000000000000000000000000000011000000000000013600000000000001327500000000000340402018021900000010000000000000BRBBASACNOR3271
012018010278BBASB4      070BBAS  FM    ON      NM000R$  000000000007000000000000880000000000070000000000008000000000000880000000000085000000000000000012000000000000019400000000000001566900000000000345402018021900000010000000000000BRBBASACNOR3271
012018010278BBASB55     070BBAS        ON      NM000R$  000000000006100000000000720000000000061000000000007100000000000720000000000070000000000000000031000000000000805600000000000057710100000000000350402018021900000010000000000000BRBBASACNOR3269
012018010278BBASB6      070BBAS        ON      NM000R$  000000000002600000000000370000000000026000000000003400000000000350000000000020000000000004800015000000000000816400000000000028560000000000000365402018021900000010000000000000BRBBASACNOR3271
012018010278BBASB62     070BBASE       ON      NM000R$  000000000016900000000001790000000000169000000000017400000000001790000000000169000000000000000003000000000000032900000000000005748100000000000322902018021900000010000000000000BRBBASACNOR3272
012018010278BBASB65     070BBAS        ON      NM000R$  000000000004900000000000580000000000049000000000005500000000000560000000000051000000000007500030000000000000038100000000000002132600000000000355402018021900000010000000000000BRBBASACNOR3271
012018010278BBASB66     070BBASE       ON      NM000R$  000000000003300000000000410000000000033000000000003600000000000410000000000000000000000000000002000000000000016000000000000000576000000000000362902018021900000010000000000000BRBBASACNOR3271
012018010278BBASB70     070BBASE       ON      NM000R$  000000000028500000000003140000000000285000000000030300000000003120000000000000000000000000000004000000000000000500000000000000151700000000000302902018021900000010000000000000BRBBASACNOR3269
012018010278BBASB81     070BBASE       ON      NM000R$  000000000020900000000002090000000000209000000000020900000000002090000000000000000000000000000001000000000000001200000000000000250800000000000317902018021900000010000000000000BRBBASACNOR3272
012018010278BBASB96     070BBAS        ON      NM000R$  000000000004400000000000450000000000040000000000004100000000000450000000000045000000000006800006000000000000037300000000000001549300000000000360402018021900000010000000000000BRBBASACNOR3265
012018010278BBASC14     070BBAS        ON      NM000R$  000000000018300000000001900000000000183000000000018300000000001900000000000150000000000000000004000000000000021000000000000003850000000000000332202018031900000010000000000000BRBBASACNOR3266
012018010278BBASC3      070BBAS        ON      NM000R$  000000000016000000000001600000000000160000000000016000000000001600000000000000000000000017500004000000000000030000000000000004800000000000000337202018031900000010000000000000BRBBASACNOR3271
012018010278BBASC327    070BBAS        ON      NM000R$  000000000020800000000002090000000000208000000000020800000000002090000000000120000000000000000005000000000000026500000000000005525400000000000327202018031900000010000000000000BRBBASACNOR3273
012018010278BBASC34     070BBASE       ON      NM000R$  000000000013800000000001540000000000138000000000013800000000001540000000000000000000000000000010000000000000023000000000000003194200000000000339702018031900000010000000000000BRBBASACNOR3272
012018010278BBASC63     070BBASE       ON      NM000R$  000000000019500000000001960000000000195000000000019500000000001960000000000110000000000000000003000000000000020000000000000003906400000000000329702018031900000010000000000000BRBBASACNOR3271
012018010282BBASM13     080BBASE       ON      NM000R$  000000000009300000000000930000000000093000000000009300000000000930000000000000000000000000000002000000000000001500000000000000139500000000000333102018011500000010000000000000BRBBASACNOR3271
012018010282BBASM3      080BBASE       ON      NM000R$  000000000000600000000000070000000000006000000000000600000000000070000000000006000000000000800014000000000000015100000000000000104700000000000298102018011500000010000000000000BRBBASACNOR3271
012018010282BBASM31     080BBASE  FM   ON      NM000R$  000000000001700000000000170000000000013000000000001400000000000130000000000011000000000003400190000000000000050900000000000000742800000000000308102018011500000010000000000000BRBBASACNOR3269
012018010282BBASM32     080BBASE       ON      NM000R$  000000000002600000000000290000000000022000000000002700000000000230000000000021000000000005500090000000000000094800000000000002639300000000000315602018011500000010000000000000BRBBASACNOR3267
012018010282BBASM33     080BBASE  FM   ON      NM000R$  000000000007600000000000780000000000059000000000006900000000000620000000000055000000000005800013000000000000035500000000000002479300000000000328102018011500000010000000000000BRBBASACNOR3271
012018010282BBASM5      080BBASE       ON      NM000R$  000000000026000000000002600000000000260000000000026000000000002600000000000000000000000000000004000000000000002000000000000000520000000000000353102018011500000010000000000000BRBBASACNOR3271
012018010282BBASM59     080BBASE       ON      NM000R$  000000000000300000000000030000000000003000000000000300000000000030000000000002000000000000400001000000000000004500000000000000013500000000000288102018011500000010000000000000BRBBASACNOR3267
012018010282BBASM60     080BBASE       ON      NM000R$  000000000000500000000000060000000000005000000000000500000000000060000000000004000000000002000002000000000000004100000000000000020600000000000295602018011500000010000000000000BRBBASACNOR3267
012018010282BBASM62     080BBASE       ON      NM000R$  000000000004400000000000440000000000035000000000003800000000000350000000000000000000000000000015000000000000027600000000000001063000000000000320602018011500000010000000000000BRBBASACNOR3271
012018010282BBASM7      080BBASE       ON      NM000R$  000000000000200000000000020000000000002000000000000200000000000020000000000001000000000000900003000000000000022000000000000000044000000000000278102018011500000010000000000000BRBBASACNOR3264
012018010282BBASM71     080BBASE       ON      NM000R$  000000000001800000000000180000000000018000000000001800000000000180000000000001000000000000000001000000000000001200000000000000021600000000000310602018011500000010000000000000BRBBASACNOR3271
012018010282BBASM72     080BBASE       ON      NM000R$  000000000007000000000000700000000000052000000000006000000000000520000000000000000000000010000027000000000000127500000000000007652400000000000325602018011500000010000000000000BRBBASACNOR3271
012018010282BBASM8      080BBASE       ON      NM000R$  000000000008500000000000850000000000085000000000008500000000000850000000000000000000000000000004000000000000026700000000000002269500000000000330602018011500000010000000000000BRBBASACNOR3264
012018010282BBASM91     080BBASE       ON      NM000R$  000000000002600000000000260000000000020000000000002400000000000200000000000001000000000000000007000000000000004400000000000000108000000000000313102018011500000010000000000000BRBBASACNOR3271
012018010282BBASM92     080BBASE  FM   ON      NM000R$  000000000002900000000000300000000000025000000000002700000000000250000000000000000000000002600007000000000000020300000000000000548600000000000318102018011500000010000000000000BRBBASACNOR3271
012018010282BBASM94     080BBASE       ON      NM000R$  000000000014000000000001450000000000135000000000014000000000001400000000000000000000000000000025000000000000042300000000000005958500000000000340602018011500000010000000000000BRBBASACNOR3265
012018010282BBASN1      080BBASE       ON      NM000R$  000000000007100000000000710000000000071000000000007100000000000710000000000000000000000018500001000000000000000100000000000000007100000000000310402018021900000010000000000000BRBBASACNOR3266
012018010282BBASN10     080BBASE       ON      NM000R$  000000000004000000000000420000000000039000000000003900000000000390000000000031000000000000000004000000000000022000000000000000877600000000000297902018021900000010000000000000BRBBASACNOR3270
012018010282BBASN13     080BBASE       ON      NM000R$  000000000002600000000000260000000000026000000000002600000000000260000000000019000000000002600001000000000000002000000000000000052000000000000287902018021900000010000000000000BRBBASACNOR3265
012018010282BBASN17     080BBASE       ON      NM000R$  000000000024500000000002570000000000245000000000024700000000002500000000000000000000000000000005000000000000035100000000000008679500000000000347902018021900000010000000000000BRBBASACNOR3265
012018010282BBASN2      080BBASE       ON      NM000R$  000000000012000000000001200000000000120000000000012000000000001200000000000000000000000000000001000000000000001000000000000000120000000000000325402018021900000010000000000000BRBBASACNOR3271
012018010282BBASN30     080BBASE       ON      NM000R$  000000000003800000000000380000000000036000000000003600000000000370000000000015000000000000000004000000000000014000000000000000511000000000000295402018021900000010000000000000BRBBASACNOR3269
012018010282BBASN32     080BBASE       ON      NM000R$  000000000008000000000000880000000000080000000000008700000000000840000000000083000000000012500004000000000000011600000000000001014500000000000315402018021900000010000000000000BRBBASACNOR3266
012018010282BBASN327    080BBASE  FM   ON      NM000R$  000000000013300000000001440000000000133000000000013700000000001360000000000000000000000000000005000000000000019000000000000002605000000000000327902018021900000010000000000000BRBBASACNOR3273
012018010282BBASN58     080BBASE       ON      NM000R$  000000000002500000000000250000000000025000000000002500000000000250000000000022000000000000000001000000000000010000000000000000250000000000000285402018021900000010000000000000BRBBASACNOR3271
012018010282BBASN60     080BBASE       ON      NM000R$  000000000005900000000000590000000000059000000000005900000000000590000000000000000000000000000001000000000000001700000000000000100300000000000305402018021900000010000000000000BRBBASACNOR3271
012018010282BBASN63     080BBASE       ON      NM000R$  000000000016100000000001610000000000161000000000016100000000001610000000000000000000000000000001000000000000005300000000000000853300000000000332902018021900000010000000000000BRBBASACNOR3272
012018010282BBASN7      080BBASE       ON      NM000R$  000000000001600000000000160000000000016000000000001600000000000160000000000000000000000004000001000000000000007000000000000000112000000000000277902018021900000010000000000000BRBBASACNOR3265
012018010282BBASN70     080BBASE       ON      NM000R$  000000000005500000000000550000000000055000000000005500000000000550000000000050000000000000000001000000000000000300000000000000016500000000000302902018021900000010000000000000BRBBASACNOR3269
012018010282BBASN71     080BBASE  FM   ON      NM000R$  000000000006300000000000650000000000062000000000006200000000000620000000000000000000000000000007000000000000015100000000000000947400000000000307902018021900000010000000000000BRBBASACNOR3269
012018010282BBASN81     080BBASE  FM   ON      NM000R$  000000000010400000000001040000000000093000000000009700000000000930000000000000000000000000000008000000000000017200000000000001684600000000000317902018021900000010000000000000BRBBASACNOR3272
012018010282BBASO14     080BBASE       ON      NM000R$  000000000019000000000001900000000000190000000000019000000000001900000000000000000000000000000002000000000000008100000000000001539000000000000332202018031900000010000000000000BRBBASACNOR3266
012018010282BBASO2      080BBASE       ON      NM000R$  000000000015000000000001500000000000150000000000015000000000001500000000000000000000000000000001000000000000000100000000000000015000000000000322202018031900000010000000000000BRBBASACNOR3270
012018010282BBASO28     080BBASE       ON      NM000R$  000000000004500000000000450000000000045000000000004500000000000450000000000000000000000004500001000000000000000400000000000000018000000000000282202018031900000010000000000000BRBBASACNOR3271
012018010282BBASO29     080BBASE       ON      NM000R$  000000000005500000000000550000000000055000000000005500000000000550000000000000000000000000000001000000000000000100000000000000005500000000000292202018031900000010000000000000BRBBASACNOR3273
012018010282BBASO31     080BBASE       ON      NM000R$  000000000011000000000001100000000000110000000000011000000000001100000000000000000000000000000001000000000000000100000000000000011000000000000312202018031900000010000000000000BRBBASACNOR3273
012018010282BBASO63     080BBASE       ON      NM000R$  000000000018000000000001800000000000180000000000018000000000001800000000000000000000000000000001000000000000000100000000000000018000000000000329702018031900000010000000000000BRBBASACNOR3271
012018010282BBASX17     080BBASE       ON      NM000R$  000000000054800000000005600000000000548000000000055200000000005600000000000000000000000000000004000000000000000800000000000000442000000000000372002018121700000010000000000000BRBBASACNOR3271
012018010202BBDC3       010BRADESCO    ON  EJ  N1   R$  000000000322800000000032550000000003204000000000322600000000032280000000003222000000000323007513000000000001366900000000004410309700000000000000009999123100000010000000000000BRBBDCACNOR1673
012018010296BBDC3F      020BRADESCO    ON  EJ  N1   R$  000000000320600000000032450000000003186000000000322700000000032200000000003220000000000325000103000000000000001956000000000006313178000000000000009999123100000010000000000000BRBBDCACNOR1673
012018010202BBDC4       010BRADESCO    PN  EJ  N1   R$  000000000340500000000034800000000003402000000000345000000000034600000000003459000000000346021446000000000008420600000000029052083700000000000000009999123100000010000000000000BRBBDCACNPR8673
012018010296BBDC4F      020BRADESCO    PN  EJ  N1   R$  000000000338800000000034870000000003388000000000344600000000034870000000003470000000000348700410000000000000011733000000000040438947000000000000009999123100000010000000000000BRBBDCACNPR8673
012018010262BBDC4T      030BRADESCO    PN  EJ  N1030R$  000000000347600000000034770000000003476000000000347600000000034770000000000000000000000000000002000000000000001800000000000006257558000000000000009999123100000010000000000000BRBBDCACNPR8673
012018010262BBDC4T      030BRADESCO    PN  EJ  N1045R$  000000000345600000000034570000000003456000000000345600000000034570000000000000000000000000000002000000000000001000000000000003456870000000000000009999123100000010000000000000BRBBDCACNPR8673
012018010278BBDCA12     070BBDC  FM/EJ PN      N1000R$  000000000002100000000000470000000000021000000000003400000000000440000000000020000000000004600040000000000000075600000000000002588500000000000349902018011500000010000000000000BRBBDCACNPR8670
012018010278BBDCA13     070BBDC  FM/EJ PN      N1000R$  000000000000700000000000130000000000007000000000001000000000000120000000000011000000000001500043000000000000064000000000000000654100000000000359902018011500000010000000000000BRBBDCACNPR8670
012018010278BBDCA17     070BBDCE    /EJPN      N1000R$  000000000007900000000001300000000000079000000000010100000000001250000000000095000000000000000022000000000000017600000000000001778800000000000337902018011500000010000000000000BRBBDCACNPR8655
012018010278BBDCA18     070BBDCE    /EJPN      N1000R$  000000000018500000000002050000000000185000000000018900000000002050000000000120000000000000000002000000000000002500000000000000472500000000000328802018011500000010000000000000BRBBDCACNPR8652
012018010278BBDCA21     070BBDC  FM/EJ PN      N1000R$  000000000000400000000000040000000000004000000000000400000000000040000000000000000000000010000003000000000000006500000000000000026000000000000367702018011500000010000000000000BRBBDCACNPR8670
012018010278BBDCA32     070BBDC    /EJ PN      N1000R$  000000000028300000000003480000000000283000000000033000000000003480000000000000000000000000000017000000000000022700000000000007507100000000000313102018011500000010000000000000BRBBDCACNPR8671
012018010278BBDCA35     070BBDCE    /EJPN      N1000R$  000000000005900000000000920000000000058000000000007400000000000920000000000075000000000009400026000000000000009200000000000000686900000000000342402018011500000010000000000000BRBBDCACNPR8655
012018010278BBDCA359    070BBDCE    /EJPN      N1000R$  000000000001700000000000250000000000017000000000002000000000000250000000000027000000000000000007000000000000015000000000000000307000000000000352402018011500000010000000000000BRBBDCACNPR8672
012018010278BBDCA37     070BBDC    /EJ PN      N1000R$  000000000016000000000002260000000000160000000000016500000000002260000000000171000000000000000016000000000000077600000000000012842500000000000326502018011500000010000000000000BRBBDCACNPR8659
012018010278BBDCA38     070BBDC  FM/EJ PN      N1000R$  000000000010700000000001510000000000107000000000012500000000001410000000000050000000000015100046000000000000074110000000000009274720000000000335602018011500000010000000000000BRBBDCACNPR8659
012018010278BBDCA67     070BBDC    /EJ PN      N1000R$  000000000028600000000002860000000000286000000000028600000000002860000000000000000000000000000004000000000000028000000000000008008000000000000317702018011500000010000000000000BRBBDCACNPR8671
012018010278BBDCA7      070BBDC    /EJ PN      N1000R$  000000000003000000000000700000000000030000000000005400000000000690000000000062000000000008000080000000000000088500000000000004862100000000000344902018011500000010000000000000BRBBDCACNPR8669
012018010278BBDCA96     070BBDCE    /EJPN      N1000R$  000000000028800000000002880000000000288000000000028800000000002880000000000000000000000000000003000000000000002000000000000000576000000000000315202018011500000010000000000000BRBBDCACNPR8652
012018010278BBDCA98     070BBDCE    /EJPN      N1000R$  000000000010000000000001000000000000100000000000010000000000001000000000000101000000000000000001000000000000000100000000000000010000000000000333302018011500000010000000000000BRBBDCACNPR8653
012018010278BBDCB18     070BBDCE    /EJPN      N1000R$  000000000011500000000001180000000000113000000000011600000000001130000000000076000000000000000004000000000000014700000000000001712600000000000347102018021900000010000000000000BRBBDCACNPR8655
012018010278BBDCB20     070BBDCE    /EJPN      N1000R$  000000000005800000000000770000000000058000000000006900000000000770000000000049000000000000000009000000000000033300000000000002329900000000000356202018021900000010000000000000BRBBDCACNPR8655
012018010278BBDCB30     070BBDCE    /EJPN      N1000R$  000000000002200000000000400000000000022000000000003800000000000400000000000000000000000000000004000000000000024800000000000000956000000000000369802018021900000010000000000000BRBBDCACNPR8655
012018010278BBDCB35     070BBDCE    /EJPN      N1000R$  000000000020100000000002010000000000200000000000020000000000002000000000000117000000000000000004000000000000027600000000000005534000000000000333402018021900000010000000000000BRBBDCACNPR8655
012018010278BBDCB37     070BBDCE    /EJPN      N1000R$  000000000004000000000000520000000000040000000000004500000000000520000000000010000000000000000004000000000000015000000000000000684000000000000365202018021900000010000000000000BRBBDCACNPR8655
012018010278BBDCB42     070BBDCE    /EJPN      N1000R$  000000000001800000000000180000000000018000000000001800000000000180000000000000000000000000000001000000000000001500000000000000027000000000000378902018021900000010000000000000BRBBDCACNPR8656
012018010238BBDCB52E    012BBDC    /EJ PN      N1000R$  000000000331400000000033140000000003314000000000331400000000033140000000000000000000000000000002000000000000000200000000000000662800000000000331402018021900000010000000000000BRBBDCACNPR8671
012018010278BBDCB53     070BBDC  FM/EJ PN      N1000R$  000000000016900000000002020000000000169000000000018600000000002020000000000075000000000000000007000000000000018900000000000003522200000000000335902018021900000010000000000000BRBBDCACNPR8671
012018010278BBDCB54     070BBDC    /EJ PN      N1000R$  000000000012700000000001420000000000124000000000012800000000001420000000000000000000000000000004000000000000016600000000000002135800000000000345002018021900000010000000000000BRBBDCACNPR8671
012018010278BBDCB55     070BBDC  FM/EJ PN      N1000R$  000000000010100000000001030000000000101000000000010100000000001030000000000010000000000000000005000000000000012300000000000001250100000000000349602018021900000010000000000000BRBBDCACNPR8671
012018010278BBDCB56     070BBDC  FM/EJ PN      N1000R$  000000000005500000000000730000000000055000000000006400000000000730000000000025000000000000000004000000000000004600000000000000295000000000000358702018021900000010000000000000BRBBDCACNPR8671
012018010278BBDCB61     070BBDC  FM/EJ PN      N1000R$  000000000004900000000000490000000000047000000000004800000000000470000000000000000000000000000005000000000000017220000000000000834180000000000367502018021900000010000000000000BRBBDCACNPR8660
012018010278BBDCB7      070BBDCE    /EJPN      N1000R$  000000000011400000000001450000000000114000000000014100000000001450000000000091000000000000000003000000000000015000000000000002116000000000000342502018021900000010000000000000BRBBDCACNPR8655
012018010278BBDCB94     070BBDCE    /EJPN      N1000R$  000000000016700000000001760000000000167000000000016900000000001760000000000072000000000000000003000000000000015500000000000002623000000000000338402018021900000010000000000000BRBBDCACNPR8671
012018010278BBDCC352    070BBDC    /EJ PN      N1000R$  000000000018400000000001840000000000184000000000018400000000001840000000000000000000000000000001000000000000006000000000000001104000000000000345702018031900000010000000000000BRBBDCACNPR8672
012018010278BBDCC357    070BBDC    /EJ PN      N1000R$  000000000015700000000001570000000000157000000000015700000000001570000000000000000000000000000001000000000000006000000000000000942000000000000350702018031900000010000000000000BRBBDCACNPR8672
012018010278BBDCC362    070BBDC    /EJ PN      N1000R$  000000000013200000000001320000000000132000000000013200000000001320000000000000000000000000000001000000000000006000000000000000792000000000000355702018031900000010000000000000BRBBDCACNPR8672
012018010278BBDCC98     070BBDCE    /EJPN      N1000R$  000000000013300000000001990000000000133000000000019800000000001990000000000000000000000000000002000000000000006010000000000001195330000000000343202018031900000010000000000000BRBBDCACNPR8656
012018010278BBDCD325    070BBDC        PN      N1000R$  000000000034000000000003400000000000340000000000034000000000003400000000000000000000000000000001000000000000000100000000000000034000000000000325702018041600000010000000000000BRBBDCACNPR8673
012018010282BBDCM1      080BBDCE    /EJPN      N1000R$  000000000000100000000000010000000000001000000000000100000000000010000000000000000000000000100004000000000000001410000000000000001410000000000276502018011500000010000000000000BRBBDCACNPR8659
012018010282BBDCM12     080BBDCE  FM/EJPN      N1000R$  000000000009200000000000920000000000067000000000007900000000000670000000000000000000000000000003000000000000007400000000000000590000000000000349902018011500000010000000000000BRBBDCACNPR8670
012018010282BBDCM15     080BBDCE    /EJPN      N1000R$  000000000000300000000000030000000000003000000000000300000000000030000000000000000000000001500002000000000000000600000000000000001800000000000301502018011500000010000000000000BRBBDCACNPR8652
012018010282BBDCM17     080BBDCE  FM/EJPN      N1000R$  000000000002500000000000280000000000025000000000002600000000000270000000000000000000000000000018000000000000026980000000000000715390000000000337902018011500000010000000000000BRBBDCACNPR8655
012018010282BBDCM18     080BBDCE  FM/EJPN      N1000R$  000000000001400000000000150000000000012000000000001400000000000120000000000014000000000000000015000000000000020890000000000000298390000000000328802018011500000010000000000000BRBBDCACNPR8652
012018010282BBDCM35     080BBDCE    /EJPN      N1000R$  000000000004100000000000410000000000035000000000003700000000000380000000000000000000000009700057000000000000154150000000000005760800000000000342402018011500000010000000000000BRBBDCACNPR8655
012018010282BBDCM37     080BBDCE    /EJPN      N1000R$  000000000001300000000000140000000000013000000000001300000000000140000000000000000000000000000013000000000000028100000000000000393300000000000326502018011500000010000000000000BRBBDCACNPR8659
012018010282BBDCM38     080BBDCE    /EJPN      N1000R$  000000000002400000000000260000000000021000000000002400000000000210000000000000000000000000000009000000000000000900000000000000021600000000000335602018011500000010000000000000BRBBDCACNPR8659
012018010282BBDCM67     080BBDCE    /EJPN      N1000R$  000000000000800000000000080000000000008000000000000800000000000080000000000000000000000000000002000000000000002500000000000000020000000000000317702018011500000010000000000000BRBBDCACNPR8671
012018010282BBDCM7      080BBDCE    /EJPN      N1000R$  000000000005200000000000520000000000048000000000005000000000000520000000000038000000000009900006000000000000004400000000000000220400000000000344902018011500000010000000000000BRBBDCACNPR8669
012018010282BBDCM81     080BBDCE    /EJPN      N1000R$  000000000020500000000002050000000000201000000000020300000000002010000000000000000000000000000003000000000000010000000000000002030000000000000365202018011500000010000000000000BRBBDCACNPR8659
012018010282BBDCM82     080BBDCE    /EJPN      N1000R$  000000000000800000000000080000000000008000000000000800000000000080000000000000000000000002000001000000000000001800000000000000014400000000000320202018011500000010000000000000BRBBDCACNPR8670
012018010282BBDCM97     080BBDCE    /EJPN      N1000R$  000000000000900000000000100000000000009000000000000900000000000100000000000000000000000001700003000000000000003900000000000000035500000000000324202018011500000010000000000000BRBBDCACNPR8652
012018010282BBDCN18     080BBDCE    /EJPN      N1000R$  000000000010900000000001090000000000109000000000010900000000001090000000000000000000000000000001000000000000007000000000000000763000000000000347102018021900000010000000000000BRBBDCACNPR8655
012018010282BBDCN318    080BBDCE    /EJPN      N1000R$  000000000002200000000000220000000000022000000000002200000000000220000000000000000000000000000002000000000000020000000000000000440000000000000311602018021900000010000000000000BRBBDCACNPR8672
012018010282BBDCN35     080BBDCE    /EJPN      N1000R$  000000000005900000000000620000000000059000000000006000000000000620000000000000000000000000000002000000000000014000000000000000847000000000000333402018021900000010000000000000BRBBDCACNPR8655
012018010282BBDCN46     080BBDCE    /EJPN      N1000R$  000000000003100000000000330000000000031000000000003200000000000330000000000033000000000000000002000000000000014000000000000000448000000000000319102018021900000010000000000000BRBBDCACNPR8671
012018010282BBDCN49     080BBDCE    /EJPN      N1000R$  000000000003800000000000410000000000038000000000003900000000000400000000000010000000000000000003000000000000014500000000000000573000000000000324102018021900000010000000000000BRBBDCACNPR8671
012018010282BBDCN52     080BBDCE    /EJPN      N1000R$  000000000005400000000000570000000000053000000000005400000000000570000000000000000000000000000006000000000000051400000000000002789600000000000331402018021900000010000000000000BRBBDCACNPR8671
012018010282BBDCN53     080BBDCE    /EJPN      N1000R$  000000000006600000000000690000000000066000000000006700000000000690000000000000000000000000000002000000000000014000000000000000945000000000000335902018021900000010000000000000BRBBDCACNPR8671
012018010282BBDCN54     080BBDCE    /EJPN      N1000R$  000000000009900000000001030000000000099000000000010200000000001020000000000000000000000000000006000000000000041600000000000004243200000000000345002018021900000010000000000000BRBBDCACNPR8671
012018010282BBDCN55     080BBDCE  FM/EJPN      N1000R$  000000000012200000000001300000000000117000000000012400000000001170000000000000000000000000000005000000000000011400000000000001413800000000000349602018021900000010000000000000BRBBDCACNPR8671
012018010282BBDCN6      080BBDCE  FM/EJPN      N1000R$  000000000004700000000000530000000000047000000000004900000000000530000000000000000000000000000005000000000000017000000000000000838000000000000328902018021900000010000000000000BRBBDCACNPR8655
012018010282BBDCN7      080BBDCE    /EJPN      N1000R$  000000000009100000000000930000000000089000000000009100000000000930000000000000000000000000000003000000000000021000000000000001911000000000000342502018021900000010000000000000BRBBDCACNPR8655
012018010282BBDCN73     080BBDCE    /EJPN      N1000R$  000000000004300000000000460000000000043000000000004400000000000460000000000000000000000000000002000000000000014000000000000000623000000000000326602018021900000010000000000000BRBBDCACNPR8671
012018010282BBDCN94     080BBDCE  FM/EJPN      N1000R$  000000000007300000000000760000000000073000000000007300000000000760000000000000000000000000000003000000000000010000000000000000739000000000000338402018021900000010000000000000BRBBDCACNPR8671
012018010282BBDCO34     080BBDCE    /EJPN      N1000R$  000000000008500000000000850000000000085000000000008500000000000850000000000000000000000000000001000000000000000100000000000000008500000000000333402018031900000010000000000000BRBBDCACNPR8671
012018010282BBDCO345    080BBDCE    /EJPN      N1000R$  000000000010400000000001040000000000104000000000010400000000001040000000000000000000000000000001000000000000006000000000000000624000000000000338402018031900000010000000000000BRBBDCACNPR8672
012018010282BBDCO352    080BBDCE    /EJPN      N1000R$  000000000013200000000001320000000000132000000000013200000000001320000000000000000000000000000001000000000000006000000000000000792000000000000345702018031900000010000000000000BRBBDCACNPR8672
012018010282BBDCO357    080BBDCE    /EJPN      N1000R$  000000000015400000000001540000000000154000000000015400000000001540000000000000000000000000000001000000000000006000000000000000924000000000000350702018031900000010000000000000BRBBDCACNPR8672
012018010282BBDCO362    080BBDCE    /EJPN      N1000R$  000000000017900000000001790000000000179000000000017900000000001790000000000000000000000000000001000000000000006000000000000001074000000000000355702018031900000010000000000000BRBBDCACNPR8672
012018010282BBDCO98     080BBDCE    /EJPN      N1000R$  000000000012200000000001220000000000122000000000012200000000001220000000000000000000000000000001000000000000006000000000000000732000000000000343202018031900000010000000000000BRBBDCACNPR8656
012018010282BBDCV70     080BBDCE    /EJPN      N1000R$  000000000069300000000006930000000000649000000000067100000000006490000000000000000000000069400002000000000000000200000000000000134200000000000405102018101500000010000000000000BRBBDCACNPR8669
012018010212BBFI11B     010FII BB PROGRCI  ER  MB   R$  000000029799000000002979900000000294000000000029610400000002942000000000294200000000029630000022000000000000000065000000000019246814000000000000009999123100000010000000000000BRBBFICTF006250
012018010212BBPO11      010FII BB PRGIICI  ER       R$  000000001438900000000145000000000014205000000001441000000000143700000000014370000000001440001123000000000000034029000000000490386150000000000000009999123100000010000000000000BRBBPOCTF003162
012018010212BBRC11      010FII BB CORP CI  ER       R$  000000001434900000000143490000000014250000000001427500000000142650000000014265000000001434800026000000000000000470000000000006709369000000000000009999123100000010000000000000BRBBRCCTF004176
012018010202BBRK3       010BR BROKERS  ON      NM   R$  000000000010000000000001060000000000099000000000010100000000001010000000000100000000000010101108000000000005016300000000000510808400000000000000009999123100000010000000000000BRBBRKACNOR4111
012018010296BBRK3F      020BR BROKERS  ON      NM   R$  000000000010300000000001040000000000103000000000010300000000001030000000000082000000000010300004000000000000000175000000000000018075000000000000009999123100000010000000000000BRBBRKACNOR4111
012018010262BBRK3T      030BR BROKERS  ON      NM062R$  000000000010200000000001030000000000102000000000010200000000001030000000000000000000000000000002000000000000003500000000000000357919000000000000009999123100000010000000000000BRBBRKACNOR4111
012018010214BBSD11      010BB ETF SP DVCI           R$  000000000608400000000060990000000006065000000000608800000000060990000000004100000000000000000015000000000000000610000000000003714090000000000000009999123100000010000000000000BRBBSDCTF000100
012018010202BBSE3       010BBSEGURIDADEON      NM   R$  000000000286500000000028790000000002854000000000286400000000028700000000002870000000000287107792000000000001901000000000005445885000000000000000009999123100000010000000000000BRBBSEACNOR5109
012018010296BBSE3F      020BBSEGURIDADEON      NM   R$  000000000286800000000028930000000002850000000000286600000000028930000000002860000000000289300274000000000000006547000000000018763844000000000000009999123100000010000000000000BRBBSEACNOR5109
012018010278BBSEA28     070BBSE  FM    ON      NM000R$  000000000009000000000000940000000000075000000000009200000000000750000000000060000000000010000004000000000000012000000000000001106000000000000280002018011500000010000000000000BRBBSEACNOR5109
012018010278BBSEA29     070BBSE  FM    ON      NM000R$  000000000001800000000000270000000000018000000000002100000000000180000000000001000000000003000009000000000000024500000000000000525000000000000290002018011500000010000000000000BRBBSEACNOR5109
012018010278BBSEA30     070BBSE  FM    ON      NM000R$  000000000000500000000000060000000000004000000000000400000000000040000000000001000000000000400004000000000000007900000000000000039300000000000300002018011500000010000000000000BRBBSEACNOR5109
012018010278BBSEA31     070BBSE  FM    ON      NM000R$  000000000000100000000000020000000000001000000000000100000000000020000000000000000000000000000002000000000000000200000000000000000300000000000310002018011500000010000000000000BRBBSEACNOR5109
012018010278BBSEA57     070BBSE        ON      NM000R$  000000000013300000000001330000000000133000000000013300000000001330000000000000000000000000000001000000000000000100000000000000013300000000000275002018011500000010000000000000BRBBSEACNOR5109
012018010278BBSEA58     070BBSE        ON      NM000R$  000000000005400000000000540000000000040000000000004300000000000400000000000001000000000000000015000000000000007300000000000000319900000000000285002018011500000010000000000000BRBBSEACNOR5109
012018010278BBSEA59     070BBSE        ON      NM000R$  000000000000700000000000080000000000007000000000000700000000000080000000000000000000000001000011000000000000030600000000000000233400000000000295002018011500000010000000000000BRBBSEACNOR5109
012018010278BBSEB28     070BBSE        ON      NM000R$  000000000011400000000001140000000000114000000000011400000000001140000000000000000000000000000001000000000000006500000000000000741000000000000283602018021900000010000000000000BRBBSEACNOR5109
012018010278BBSEB29     070BBSE        ON      NM000R$  000000000005500000000000650000000000055000000000006200000000000610000000000060000000000007500008000000000000020500000000000001285500000000000293602018021900000010000000000000BRBBSEACNOR5109
012018010278BBSEB57     070BBSE  FM    ON      NM000R$  000000000015600000000001570000000000156000000000015600000000001570000000000051000000000000000002000000000000014000000000000002191000000000000278602018021900000010000000000000BRBBSEACNOR5109
012018010278BBSEB58     070BBSE  FM    ON      NM000R$  000000000009200000000000930000000000085000000000008600000000000850000000000000000000000009300003000000000000009000000000000000780000000000000288602018021900000010000000000000BRBBSEACNOR5109
012018010278BBSEB59     070BBSE  FM    ON      NM000R$  000000000004400000000000460000000000043000000000004400000000000460000000000000000000000000000003000000000000012100000000000000544300000000000298602018021900000010000000000000BRBBSEACNOR5109
012018010278BBSEB60     070BBSE  FM    ON      NM000R$  000000000001800000000000200000000000018000000000001900000000000200000000000000000000000002200002000000000000001700000000000000032800000000000308602018021900000010000000000000BRBBSEACNOR5109
012018010278BBSEB69     070BBSEE       ON      NM000R$  000000000007400000000000770000000000071000000000007400000000000740000000000000000000000000000004000000000000019100000000000001431100000000000291102018021900000010000000000000BRBBSEACNOR5109
012018010278BBSEB9      070BBSEE       ON      NM000R$  000000000005300000000000530000000000053000000000005300000000000530000000000000000000000000000001000000000000007000000000000000371000000000000296102018021900000010000000000000BRBBSEACNOR5109
012018010278BBSEC29     070BBSE        ON      NM000R$  000000000011100000000001160000000000111000000000011300000000001160000000000000000000000018200002000000000000012000000000000001362000000000000290002018031900000010000000000000BRBBSEACNOR5109
012018010278BBSEC30     070BBSE        ON      NM000R$  000000000006700000000000710000000000067000000000006900000000000690000000000010000000000000000003000000000000013400000000000000924600000000000300002018031900000010000000000000BRBBSEACNOR5109
012018010278BBSEC58     070BBSE        ON      NM000R$  000000000014000000000001400000000000140000000000014000000000001400000000000000000000000019800001000000000000006300000000000000882000000000000285002018031900000010000000000000BRBBSEACNOR5109
012018010278BBSEC59     070BBSE        ON      NM000R$  000000000008700000000000910000000000087000000000008900000000000900000000000000000000000000000003000000000000019000000000000001698000000000000295002018031900000010000000000000BRBBSEACNOR5109
012018010278BBSEC92     070BBSEE       ON      NM000R$  000000000009900000000001030000000000099000000000010100000000001030000000000000000000000000000002000000000000012000000000000001212000000000000292502018031900000010000000000000BRBBSEACNOR5109
012018010282BBSEM27     080BBSEE  FM   ON      NM000R$  000000000000500000000000050000000000005000000000000500000000000050000000000000000000000000000001000000000000000300000000000000001500000000000270002018011500000010000000000000BRBBSEACNOR5109
012018010282BBSEM29     080BBSEE  FM   ON      NM000R$  000000000004400000000000440000000000044000000000004400000000000440000000000001000000000000000001000000000000007000000000000000308000000000000290002018011500000010000000000000BRBBSEACNOR5109
012018010282BBSEM57     080BBSEE       ON      NM000R$  000000000000500000000000050000000000005000000000000500000000000050000000000001000000000000000002000000000000003000000000000000015000000000000275002018011500000010000000000000BRBBSEACNOR5109
012018010282BBSEN27     080BBSEE       ON      NM000R$  000000000002000000000000200000000000020000000000002000000000000200000000000000000000000006500001000000000000002000000000000000040000000000000273602018021900000010000000000000BRBBSEACNOR5109
012018010282BBSEN28     080BBSEE       ON      NM000R$  000000000005600000000000670000000000056000000000006000000000000670000000000000000000000012500003000000000000019000000000000001147000000000000283602018021900000010000000000000BRBBSEACNOR5109
012018010282BBSEN29     080BBSEE       ON      NM000R$  000000000011700000000001170000000000117000000000011700000000001170000000000000000000000000000001000000000000006800000000000000795600000000000293602018021900000010000000000000BRBBSEACNOR5109
012018010282BBSEN56     080BBSEE  FM   ON      NM000R$  000000000002100000000000240000000000021000000000002100000000000240000000000000000000000000000003000000000000012200000000000000262800000000000268602018021900000010000000000000BRBBSEACNOR5109
012018010282BBSEN57     080BBSEE  FM   ON      NM000R$  000000000004000000000000480000000000040000000000004500000000000480000000000015000000000000000010000000000000064000000000000002922000000000000278602018021900000010000000000000BRBBSEACNOR5109
012018010282BBSEN58     080BBSEE  FM   ON      NM000R$  000000000007500000000000890000000000075000000000008000000000000890000000000000000000000000000004000000000000026000000000000002081000000000000288602018021900000010000000000000BRBBSEACNOR5109
012018010282BBSEN69     080BBSEE       ON      NM000R$  000000000010200000000001020000000000102000000000010200000000001020000000000000000000000000000001000000000000007000000000000000714000000000000291102018021900000010000000000000BRBBSEACNOR5109
012018010282BBSEO28     080BBSEE       ON      NM000R$  000000000006500000000000780000000000065000000000007000000000000780000000000000000000000000000004000000000000020000000000000001417000000000000280002018031900000010000000000000BRBBSEACNOR5109
012018010282BBSEO29     080BBSEE       ON      NM000R$  000000000010400000000001210000000000104000000000011100000000001210000000000000000000000000000003000000000000019000000000000002113000000000000290002018031900000010000000000000BRBBSEACNOR5109
012018010282BBSEO58     080BBSEE       ON      NM000R$  000000000008300000000000980000000000083000000000008900000000000980000000000000000000000000000003000000000000019000000000000001694000000000000285002018031900000010000000000000BRBBSEACNOR5109
012018010282BBSEO59     080BBSEE       ON      NM000R$  000000000014700000000001470000000000147000000000014700000000001470000000000000000000000000000001000000000000006600000000000000970200000000000295002018031900000010000000000000BRBBSEACNOR5109
012018010282BBSEO92     080BBSEE       ON      NM000R$  000000000011700000000001340000000000117000000000012300000000001340000000000000000000000000000003000000000000019000000000000002354000000000000292502018031900000010000000000000BRBBSEACNOR5109
012018010212BBVJ11      010FII C JARDIMCI  ER       R$  000000000601100000000061000000000005831000000000597600000000061000000000005950000000000610000012000000000000000100000000000000597680000000000000009999123100000010000000000000BRBBVJCTF001185
012018010212BCFF11      010FII BC FFII CI           R$  000000000784700000000078480000000007800000000000783300000000078480000000007847000000000784800201000000000000011872000000000093000599000000000000009999123100000010000000000000BRBCFFCTF000195
012018010212BCIA11      010FII BCIA    CI  ER       R$  000000001174900000000119000000000011665000000001169200000000119000000000011662000000001190000004000000000000000039000000000000456018000000000000009999123100000010000000000000BRBCIACTF005132
012018010212BCRI11      010FII BEES CRICI  ER       R$  000000001069900000000106990000000010551000000001060500000000106440000000010555000000001064500028000000000000000690000000000007317721000000000000009999123100000010000000000000BRBCRICTF009132
012018010202BDLL4       010BARDELLA    PN           R$  000000000290000000000029000000000002900000000000290000000000029000000000002900000000000300000006000000000000001900000000000005510000000000000000009999123100000010000000000000BRBDLLACNPR8151
012018010202BEEF3       010MINERVA     ON      NM   R$  000000000107700000000010990000000001070000000000108700000000010890000000001082000000000108902165000000000000317400000000000345243700000000000000009999123100000010000000000000BRBEEFACNOR6107
012018010296BEEF3F      020MINERVA     ON      NM   R$  000000000105000000000010980000000001050000000000108900000000010890000000001070000000000108900052000000000000001623000000000001768256000000000000009999123100000010000000000000BRBEEFACNOR6107
012018010262BEEF3T      030MINERVA     ON      NM030R$  000000000109500000000010960000000001095000000000109500000000010960000000000000000000000000000002000000000000004600000000000005041460000000000000009999123100000010000000000000BRBEEFACNOR6107
012018010202BEES3       010BANESTES    ON  EJ       R$  000000000036400000000003710000000000362000000000036400000000003670000000000367000000000036800016000000000000004300000000000001568100000000000000009999123100000010000000000000BRBEESACNOR9304
012018010296BEES3F      020BANESTES    ON  EJ       R$  000000000037300000000003730000000000373000000000037300000000003730000000000350000000000037300002000000000000000016000000000000005968000000000000009999123100000010000000000000BRBEESACNOR9304
012018010202BEES4       010BANESTES    PN  EJ       R$  000000000038200000000003820000000000382000000000038200000000003820000000000357000000000038200002000000000000000200000000000000076400000000000000009999123100000010000000000000BRBEESACNPR6229
012018010202BERK34      010BERKSHIRE   DRN          R$  000000006443000000000644300000000064430000000006443000000000644300000000062710000000006526900001000000000000000200000000000012886000000000000000009999123100000010000000000000BRBERKBDR002100
012018010296BERK34F     020BERKSHIRE   DRN          R$  000000006460000000000646000000000064600000000006460000000000646000000000000000000000006460000001000000000000000001000000000000064600000000000000009999123100000010000000000000BRBERKBDR002100
012018010202BGIP4       010BANESE      PN           R$  000000000355000000000035700000000003550000000000356000000000035700000000003496000000000357000002000000000000000200000000000000712000000000000000009999123100000010000000000000BRBGIPACNPR8193
012018010296BGIP4F      020BANESE      PN           R$  000000000359900000000035990000000003599000000000359900000000035990000000003250000000000359900001000000000000000002000000000000007198000000000000009999123100000010000000000000BRBGIPACNPR8193
012018010202BIOM3       010BIOMM       ON      MA   R$  000000000089900000000009000000000000881000000000089800000000009000000000000801000000000097000007000000000000002700000000000002424900000000000000009999123100000010000000000000BRBIOMACNOR2105
012018010262BIOM3T      030BIOMM       ON      MA062R$  000000000090900000000009100000000000909000000000090900000000009100000000000000000000000000000002000000000000001000000000000000909159000000000000009999123100000010000000000000BRBIOMACNOR2105
012018010202BKBR3       010BK BRASIL   ON      NM   R$  000000000176000000000017720000000001735000000000175800000000017720000000001772000000000177404385000000000001393900000000002451099100000000000000009999123100000010000000000000BRBKBRACNOR4100
012018010296BKBR3F      020BK BRASIL   ON      NM   R$  000000000175000000000017670000000001738000000000175300000000017670000000001765000000000177000073000000000000002502000000000004387509000000000000009999123100000010000000000000BRBKBRACNOR4100
012018010202BMEB3       010MERC BRASIL ON           R$  000000000064900000000007000000000000649000000000066100000000007000000000000650000000000070100003000000000000000800000000000000529500000000000000009999123100000010000000000000BRBMEBACNOR8194
012018010202BMEB4       010MERC BRASIL PN           R$  000000000050100000000005010000000000480000000000048200000000004800000000000482000000000050000012000000000000024400000000000011780100000000000000009999123100000010000000000000BRBMEBACNPR5198
012018010202BMIN4       010MERC INVEST PN           R$  000000000182400000000018240000000001824000000000182400000000018240000000001850000000000199900001000000000000000100000000000000182400000000000000009999123100000010000000000000BRBMINACNPR1168
012018010296BMIN4F      020MERC INVEST PN           R$  000000000182000000000018240000000001820000000000182100000000018240000000001820000000000214900003000000000000000021000000000000038260000000000000009999123100000010000000000000BRBMINACNPR1168
012018010202BMKS3       010BIC MONARK  ON           R$  000000003500000000000350000000000035000000000003500000000000350000000000033200000000003500000003000000000000000003000000000000105000000000000000009999123100000010000000000000BRBMKSACNOR9159
012018010212BMLC11B     010FII BMBRC LCCI      MB   R$  000000000844500000000084450000000008362000000000842400000000083620000000008362000000000844500018000000000000000192000000000001617532000000000000009999123100000010000000000000BRBMLCCTF004170
012018010296BNBR3F      020NORD BRASIL ON           R$  000000000400000000000040000000000004000000000000400000000000040000000000003801000000000400000001000000000000000004000000000000016000000000000000009999123100000010000000000000BRBNBRACNOR8195
012018010202BOAC34      010BANK AMERICADRN          R$  000000000973000000000097300000000009718000000000972800000000097180000000000000000000000971800002000000000000001100000000000010701800000000000000009999123100000010000000000000BRBOACBDR004129
012018010202BOBR4       010BOMBRIL     PN           R$  000000000049700000000004970000000000490000000000049200000000004950000000000491000000000049500025000000000000008300000000000004090000000000000000009999123100000010000000000000BRBOBRACNPR3128
012018010296BOBR4F      020BOMBRIL     PN           R$  000000000050200000000005020000000000494000000000050100000000004940000000000494000000000049600002000000000000000022000000000000011028000000000000009999123100000010000000000000BRBOBRACNPR3128
012018010214BOVA11      010ISHARES BOVACI           R$  000000000740000000000075230000000007400000000000747600000000075100000000007510000000000751912041000000000002292470000000017140063700000000000000009999123100000010000000000000BRBOVACTF003103
012018010296BOVA11F     020ISHARES BOVACI           R$  000000000738100000000076990000000007381000000000749100000000076530000000007653000000000770000038000000000000000131000000000000981417000000000000009999123100000010000000000000BRBOVACTF003103
012018010278BOVAA69     070BOVA        CI        000R$  000000000059800000000006350000000000598000000000062200000000006350000000000000000000000000000003000000000000006000000000000003735400000000000690002018011500000010000000000000BRBOVACTF003103
012018010278BOVAA70     070BOVA        CI        000R$  000000000051400000000005320000000000514000000000052600000000005320000000000000000000000000000003000000000000008600000000000004525400000000000700002018011500000010000000000000BRBOVACTF003103
012018010278BOVAA71     070BOVA        CI        000R$  000000000040900000000004090000000000409000000000040900000000004090000000000000000000000000000001000000000000000800000000000000327200000000000710002018011500000010000000000000BRBOVACTF003103
012018010278BOVAA72     070BOVA        CI        000R$  000000000029500000000003200000000000295000000000031600000000003200000000000000000000000000000006000000000000002250000000000000711250000000000720002018011500000010000000000000BRBOVACTF003103
012018010278BOVAA73     070BOVA  FM    CI        000R$  000000000018800000000002430000000000188000000000021200000000002430000000000231000000000039900017000000000000027000000000000005733000000000000730002018011500000010000000000000BRBOVACTF003103
012018010278BOVAA74     070BOVA  FM    CI        000R$  000000000011900000000001780000000000119000000000015400000000001750000000000174000000000000000025000000000000042210000000000006516460000000000740002018011500000010000000000000BRBOVACTF003103
012018010278BOVAA75     070BOVA  FM    CI        000R$  000000000008500000000001110000000000082000000000009900000000001110000000000000000000000010800011000000000000009900000000000000989500000000000750002018011500000010000000000000BRBOVACTF003103
012018010278BOVAA76     070BOVA  FM    CI        000R$  000000000005000000000000650000000000050000000000006400000000000650000000000000000000000000000003000000000000003770000000000000241630000000000760002018011500000010000000000000BRBOVACTF003103
012018010278BOVAB72     070BOVA        CI        000R$  000000000042800000000004500000000000427000000000043500000000004420000000000000000000000000000008000000000000019100000000000008315200000000000720002018021900000010000000000000BRBOVACTF003103
012018010278BOVAB73     070BOVA  FM    CI        000R$  000000000032900000000003750000000000325000000000034500000000003750000000000000000000000000000006000000000000019000000000000006569500000000000730002018021900000010000000000000BRBOVACTF003103
012018010278BOVAB74     070BOVA  FM    CI        000R$  000000000026500000000002980000000000265000000000027400000000002980000000000000000000000000000003000000000000007200000000000001974100000000000740002018021900000010000000000000BRBOVACTF003103
012018010278BOVAB75     070BOVA  FM    CI        000R$  000000000020100000000002450000000000201000000000022000000000002430000000000150000000000024600007000000000000009730000000000002149180000000000750002018021900000010000000000000BRBOVACTF003103
012018010278BOVAB76     070BOVA  FM    CI        000R$  000000000015700000000001940000000000157000000000018800000000001920000000000000000000000019600013000000000000023000000000000004339700000000000760002018021900000010000000000000BRBOVACTF003103
012018010282BOVAM67     080BOVAE       CI        000R$  000000000000600000000000060000000000006000000000000600000000000060000000000001000000000012000001000000000000001600000000000000009600000000000670002018011500000010000000000000BRBOVACTF003103
012018010282BOVAM70     080BOVAE       CI        000R$  000000000001100000000000110000000000011000000000001100000000000110000000000008000000000000000001000000000000004000000000000000044000000000000700002018011500000010000000000000BRBOVACTF003103
012018010282BOVAM71     080BOVAE       CI        000R$  000000000001500000000000150000000000014000000000001400000000000140000000000011000000000005000002000000000000011500000000000000164500000000000710002018011500000010000000000000BRBOVACTF003103
012018010282BOVAM72     080BOVAE  FM   CI        000R$  000000000001900000000000200000000000018000000000001900000000000180000000000000000000000000000004000000000000007500000000000000145800000000000720002018011500000010000000000000BRBOVACTF003103
012018010282BOVAM73     080BOVAE  FM   CI        000R$  000000000004400000000000440000000000025000000000002700000000000250000000000025000000000000000007000000000000036700000000000001014100000000000730002018011500000010000000000000BRBOVACTF003103
012018010282BOVAM74     080BOVAE  FM   CI        000R$  000000000007500000000000750000000000043000000000005300000000000480000000000000000000000007501485000000000000095750000000000005156130000000000740002018011500000010000000000000BRBOVACTF003103
012018010282BOVAN71     080BOVAE       CI        000R$  000000000007200000000000720000000000059000000000006300000000000590000000000000000000000007100007000000000000009100000000000000576200000000000710002018021900000010000000000000BRBOVACTF003103
012018010282BOVAN72     080BOVAE  FM   CI        000R$  000000000009600000000000960000000000085000000000008800000000000850000000000082000000000009100006000000000000010800000000000000960200000000000720002018021900000010000000000000BRBOVACTF003103
012018010282BOVAN73     080BOVAE  FM   CI        000R$  000000000011000000000001100000000000110000000000011000000000001100000000000000000000000011000005000000000000004420000000000000486200000000000730002018021900000010000000000000BRBOVACTF003103
012018010282BOVAN74     080BOVAE  FM   CI        000R$  000000000014200000000001500000000000139000000000014200000000001390000000000145000000000020000016000000000000031600000000000004512500000000000740002018021900000010000000000000BRBOVACTF003103
012018010282BOVAN99     080BOVAE       CI        000R$  000000000000900000000000090000000000009000000000000900000000000090000000000000000000000000000001000000000000001500000000000000013500000000000590002018021900000010000000000000BRBOVACTF003103
012018010282BOVAO69     080BOVAE       CI        000R$  000000000008200000000000820000000000082000000000008200000000000820000000000000000000000000000002000000000000001000000000000000082000000000000690002018031900000010000000000000BRBOVACTF003103
012018010282BOVAX25     080BOVAE       CI        000R$  000000000011000000000001100000000000110000000000011000000000001100000000000000000000000000000001000000000000000500000000000000055000000000000650002018121700000010000000000000BRBOVACTF003103
012018010282BOVAX72     080BOVAE       CI        000R$  000000000038000000000003800000000000380000000000038000000000003800000000000000000000000000000002000000000000000500000000000000190000000000000720002018121700000010000000000000BRBOVACTF003103
012018010214BOVV11      010IT NOW IBOV CI           R$  000000000775600000000078100000000007756000000000780900000000078100000000007792000000000781000011000000000000091820000000000717104920000000000000009999123100000010000000000000BRBOVVCTF009100
012018010296BOVV11F     020IT NOW IBOV CI           R$  000000000777500000000077750000000007403000000000749600000000074030000000000000000000000000000003000000000000000004000000000000029984000000000000009999123100000010000000000000BRBOVVCTF009100
012018010202BPAC11      010BTGP BANCO  UNT          R$  000000000191000000000019440000000001865000000000189300000000018900000000001890000000000189301424000000000001362600000000002580305800000000000000009999123100000010000000000000BRBPACUNT006101
012018010296BPAC11F     020BTGP BANCO  UNT          R$  000000000187500000000019490000000001875000000000189900000000018770000000001880000000000192900037000000000000000456000000000000866041000000000000009999123100000010000000000000BRBPACUNT006101
012018010262BPAC11T     030BTGP BANCO  UNT       016R$  000000000188800000000018890000000001888000000000188800000000018890000000000000000000000000000002000000000000017700000000000033434652000000000000009999123100000010000000000000BRBPACUNT006101
012018010262BPAC11T     030BTGP BANCO  UNT       030R$  000000000190100000000019020000000001901000000000190100000000019020000000000000000000000000000002000000000000020000000000000038038140000000000000009999123100000010000000000000BRBPACUNT006101
012018010262BPAC11T     030BTGP BANCO  UNT       062R$  000000000193100000000019320000000001931000000000193100000000019320000000000000000000000000000002000000000000002500000000000004828958000000000000009999123100000010000000000000BRBPACUNT006101
012018010202BPAC3       010BTGP BANCO  ON           R$  000000000084800000000008850000000000848000000000086600000000008850000000000836000000000088500002000000000000000200000000000000173300000000000000009999123100000010000000000000BRBPACACNOR7116
012018010202BPAC5       010BTGP BANCO  PNA          R$  000000000065000000000006700000000000650000000000065700000000006600000000000660000000000067000009000000000000002200000000000001446100000000000000009999123100000010000000000000BRBPACACNPA0116
012018010202BPAN4       010BANCO PAN   PN      N1   R$  000000000018700000000001940000000000187000000000019100000000001890000000000188000000000019200106000000000000177700000000000034060800000000000000009999123100000010000000000000BRBPANACNPR1105
012018010296BPAN4F      020BANCO PAN   PN      N1   R$  000000000018700000000001940000000000187000000000019100000000001920000000000190000000000019400005000000000000000112000000000000021418000000000000009999123100000010000000000000BRBPANACNPR1105
012018010212BPFF11      010FII ABSOLUTOCI  ER       R$  000000000979900000000097990000000009750000000000978200000000097700000000009760000000000977000012000000000000000298000000000002915223000000000000009999123100000010000000000000BRBPFFCTF002158
012018010202BPHA3       010BR PHARMA   ON      NM   R$  000000000036500000000003750000000000361000000000036800000000003750000000000371000000000037500067000000000000040400000000000014906100000000000000009999123100000010000000000000BRBPHAACNOR6105
012018010296BPHA3F      020BR PHARMA   ON      NM   R$  000000000035000000000003610000000000350000000000035500000000003610000000000366000000000037100003000000000000000076000000000000027040000000000000009999123100000010000000000000BRBPHAACNOR6105
012018010202BRAP3       010BRADESPAR   ON  EJ  N1   R$  000000000249600000000025390000000002476000000000250600000000025390000000002503000000000258500031000000000000007000000000000017542900000000000000009999123100000010000000000000BRBRAPACNOR5132
012018010296BRAP3F      020BRADESPAR   ON  EJ  N1   R$  000000000245000000000025390000000002450000000000249500000000025160000000002514000000000253900006000000000000000145000000000000361900000000000000009999123100000010000000000000BRBRAPACNOR5132
012018010202BRAP4       010BRADESPAR   PN  EJ  N1   R$  000000000288400000000029630000000002884000000000292500000000029620000000002958000000000296206087000000000001383500000000004047262800000000000000009999123100000010000000000000BRBRAPACNPR2132
012018010296BRAP4F      020BRADESPAR   PN  EJ  N1   R$  000000000286100000000029630000000002861000000000292500000000029630000000002881000000000296300084000000000000002457000000000007186773000000000000009999123100000010000000000000BRBRAPACNPR2132
012018010262BRAP4T      030BRADESPAR   PN  EJ  N1016R$  000000000294500000000029460000000002945000000000294500000000029460000000000000000000000000000002000000000000006000000000000017674916000000000000009999123100000010000000000000BRBRAPACNPR2132
012018010214BRAX11      010ISHARES BRAXCI           R$  000000000625000000000063340000000006250000000000629900000000063330000000006310000000000634000014000000000000000790000000000004976300000000000000009999123100000010000000000000BRBRAXCTF002100
012018010296BRAX11F     020ISHARES BRAXCI           R$  000000000622900000000062850000000006229000000000625700000000062850000000006036000000000000000002000000000000000002000000000000012514000000000000009999123100000010000000000000BRBRAXCTF002100
012018010212BRCR11      010FII BC FUND CI           R$  000000001061500000000106900000000010600000000001064300000000106600000000010651000000001066000406000000000000013440000000000143041939000000000000009999123100000010000000000000BRBRCRCTF000184
012018010202BRDT3       010PETROBRAS BRON      NM   R$  000000000170000000000017440000000001675000000000172500000000017230000000001710000000000172306283000000000003689600000000006366080100000000000000009999123100000010000000000000BRBRDTACNOR1114
012018010296BRDT3F      020PETROBRAS BRON      NM   R$  000000000170000000000017400000000001693000000000171500000000016930000000001670000000000169300172000000000000006274000000000010763474000000000000009999123100000010000000000000BRBRDTACNOR1114
012018010262BRDT3T      030PETROBRAS BRON      NM120R$  000000000175200000000017530000000001752000000000175200000000017530000000000000000000000000000002000000000000001000000000000001752730000000000000009999123100000010000000000000BRBRDTACNOR1114
012018010202BRFS3       010BRF SA      ON      NM   R$  000000000369700000000037600000000003671000000000372900000000037270000000003727000000000373010475000000000002341100000000008731192600000000000000009999123100000010000000000000BRBRFSACNOR8117
012018010296BRFS3F      020BRF SA      ON      NM   R$  000000000366100000000037580000000003660000000000372700000000037100000000003710000000000375700192000000000000004527000000000016873994000000000000009999123100000010000000000000BRBRFSACNOR8117
012018010262BRFS3T      030BRF SA      ON      NM030R$  000000000372000000000037740000000003720000000000376900000000037740000000000000000000000000000011000000000000058200000000000219386029000000000000009999123100000010000000000000BRBRFSACNOR8117
012018010262BRFS3T      030BRF SA      ON      NM062R$  000000000378900000000037900000000003789000000000378900000000037900000000000000000000000000000002000000000000001500000000000005684517000000000000009999123100000010000000000000BRBRFSACNOR8117
012018010262BRFS3T      030BRF SA      ON      NM090R$  000000000380000000000038310000000003800000000000380700000000038310000000000000000000000000000004000000000000002600000000000009900074000000000000009999123100000010000000000000BRBRFSACNOR8117
012018010262BRFS3T      030BRF SA      ON      NM120R$  000000000383800000000038390000000003828000000000383300000000038290000000000000000000000000000004000000000000000700000000000002683145000000000000009999123100000010000000000000BRBRFSACNOR8117
012018010278BRFSA36     070BRFS  FM    ON      NM000R$  000000000014200000000001730000000000142000000000015100000000001730000000000160000000000018800007000000000000007100000000000001079000000000000360002018011500000010000000000000BRBRFSACNOR8117
012018010278BRFSA37     070BRFS  FM    ON      NM000R$  000000000006100000000001070000000000061000000000009000000000000900000000000001000000000010800043000000000000037400000000000003390800000000000370002018011500000010000000000000BRBRFSACNOR8117
012018010278BRFSA38     070BRFS  FM    ON      NM000R$  000000000002800000000000500000000000024000000000002900000000000400000000000001000000000005000031000000000000064200000000000001919300000000000380002018011500000010000000000000BRBRFSACNOR8117
012018010278BRFSA39     070BRFS  FM    ON      NM000R$  000000000001600000000000250000000000015000000000001700000000000250000000000002000000000002500027000000000000089800000000000001602400000000000390002018011500000010000000000000BRBRFSACNOR8117
012018010278BRFSA40     070BRFS        ON      NM000R$  000000000000800000000000080000000000008000000000000800000000000080000000000008000000000001400001000000000000006000000000000000048000000000000400002018011500000010000000000000BRBRFSACNOR8117
012018010278BRFSA44     070BRFS        ON      NM000R$  000000000000200000000000020000000000002000000000000200000000000020000000000000000000000001500001000000000000000300000000000000000600000000000440002018011500000010000000000000BRBRFSACNOR8117
012018010278BRFSB10     070BRFSE       ON      NM000R$  000000000002500000000000250000000000025000000000002500000000000250000000000025000000000000000001000000000000000100000000000000002500000000000407502018021900000010000000000000BRBRFSACNOR8117
012018010278BRFSB36     070BRFS  FM    ON      NM000R$  000000000020200000000002320000000000202000000000020700000000002320000000000200000000000000000002000000000000001200000000000000248400000000000360002018021900000010000000000000BRBRFSACNOR8117
012018010278BRFSB37     070BRFS  FM    ON      NM000R$  000000000014900000000001700000000000149000000000015400000000001700000000000000000000000000000013000000000000038200000000000005914000000000000370002018021900000010000000000000BRBRFSACNOR8117
012018010278BRFSB38     070BRFS  FM    ON      NM000R$  000000000009800000000001190000000000098000000000011400000000001190000000000000000000000000000003000000000000004500000000000000514500000000000380002018021900000010000000000000BRBRFSACNOR8117
012018010278BRFSB40     070BRFS        ON      NM000R$  000000000004000000000000550000000000040000000000005300000000000550000000000000000000000010000003000000000000000800000000000000042500000000000400002018021900000010000000000000BRBRFSACNOR8117
012018010278BRFSB41     070BRFS        ON      NM000R$  000000000002500000000000350000000000025000000000003100000000000350000000000000000000000000000004000000000000000500000000000000015500000000000410002018021900000010000000000000BRBRFSACNOR8117
012018010278BRFSB42     070BRFS        ON      NM000R$  000000000001500000000000150000000000015000000000001500000000000150000000000000000000000010000001000000000000000100000000000000001500000000000420002018021900000010000000000000BRBRFSACNOR8117
012018010278BRFSC38     070BRFS        ON      NM000R$  000000000015000000000001550000000000150000000000015200000000001550000000000000000000000000000002000000000000000200000000000000030500000000000384502018031900000010000000000000BRBRFSACNOR8117
012018010278BRFSC392    070BRFSE       ON      NM000R$  000000000011000000000001200000000000110000000000011200000000001200000000000000000000000000000004000000000000000800000000000000090000000000000392002018031900000010000000000000BRBRFSACNOR8117
012018010282BRFSM36     080BRFSE  FM   ON      NM000R$  000000000002500000000000250000000000020000000000002000000000000200000000000020000000000000000003000000000000015500000000000000325000000000000360002018011500000010000000000000BRBRFSACNOR8117
012018010282BRFSM37     080BRFSE  FM   ON      NM000R$  000000000005600000000000570000000000052000000000005500000000000570000000000000000000000013000010000000000000024500000000000001351500000000000370002018011500000010000000000000BRBRFSACNOR8117
012018010282BRFSM40     080BRFSE       ON      NM000R$  000000000026000000000002600000000000260000000000026000000000002600000000000001000000000000000001000000000000000200000000000000052000000000000400002018011500000010000000000000BRBRFSACNOR8117
012018010282BRFSN36     080BRFSE  FM   ON      NM000R$  000000000006000000000000620000000000060000000000006000000000000600000000000000000000000000000007000000000000038000000000000002292000000000000360002018021900000010000000000000BRBRFSACNOR8117
012018010282BRFSN37     080BRFSE  FM   ON      NM000R$  000000000009800000000000980000000000098000000000009800000000000980000000000065000000000000000001000000000000003000000000000000294000000000000370002018021900000010000000000000BRBRFSACNOR8117
012018010282BRFSQ27     080BRFSE       ON      NM000R$  000000000025800000000002580000000000258000000000025800000000002580000000000257000000000000000001000000000000001200000000000000309600000000000370002018052100000010000000000000BRBRFSACNOR8117
012018010202BRIN3       010BR INSURANCEON      NM   R$  000000000123000000000012860000000001192000000000122000000000012000000000001200000000000124200096000000000000032900000000000040169500000000000000009999123100000010000000000000BRBRINACNOR3111
012018010296BRIN3F      020BR INSURANCEON      NM   R$  000000000119500000000012500000000001195000000000121200000000012100000000001210000000000125000007000000000000000156000000000000189219000000000000009999123100000010000000000000BRBRINACNOR3111
012018010202BRIV3       010ALFA INVEST ON           R$  000000000056200000000005620000000000562000000000056200000000005620000000000570000000000058000001000000000000002000000000000001124000000000000000009999123100000010000000000000BRBRIVACNOR6205
012018010202BRIV4       010ALFA INVEST PN           R$  000000000064600000000006460000000000630000000000063200000000006300000000000626000000000063000009000000000000013100000000000008282600000000000000009999123100000010000000000000BRBRIVACNPR3205
012018010202BRKM5       010BRASKEM     PNA     N1   R$  000000000428800000000044060000000004283000000000435700000000043860000000004385000000000438608986000000000001898000000000008270889400000000000000009999123100000010000000000000BRBRKMACNPA4115
012018010296BRKM5F      020BRASKEM     PNA     N1   R$  000000000435400000000044150000000004280000000000437500000000044150000000004365000000000441500074000000000000002178000000000009529523000000000000009999123100000010000000000000BRBRKMACNPA4115
012018010262BRKM5T      030BRASKEM     PNA     N1016R$  000000000438600000000043870000000004386000000000438600000000043870000000000000000000000000000002000000000000000200000000000000877234000000000000009999123100000010000000000000BRBRKMACNPA4115
012018010262BRKM5T      030BRASKEM     PNA     N1030R$  000000000443300000000044380000000004386000000000441800000000044040000000000000000000000000000036000000000000013500000000000059652777000000000000009999123100000010000000000000BRBRKMACNPA4115
012018010262BRKM5T      030BRASKEM     PNA     N1045R$  000000000445000000000044510000000004449000000000444900000000044500000000000000000000000000000004000000000000001300000000000005784469000000000000009999123100000010000000000000BRBRKMACNPA4115
012018010278BRKMA45     070BRKM  FM    PNA     N1000R$  000000000009300000000001300000000000087000000000009700000000001300000000000000000000000000000008000000000000005500000000000000537000000000000437402018011500000010000000000000BRBRKMACNPA4114
012018010278BRKMA46     070BRKM  FM    PNA     N1000R$  000000000007300000000000830000000000073000000000008200000000000830000000000050000000000008500004000000000000002300000000000000189700000000000447402018011500000010000000000000BRBRKMACNPA4114
012018010278BRKMB45     070BRKM  FM    PNA     N1000R$  000000000025000000000002500000000000240000000000024500000000002400000000000000000000000000000002000000000000000400000000000000098000000000000437402018021900000010000000000000BRBRKMACNPA4114
012018010278BRKMB46     070BRKM  FM    PNA     N1000R$  000000000019600000000002000000000000196000000000019600000000002000000000000000000000000020000005000000000000004400000000000000863100000000000447402018021900000010000000000000BRBRKMACNPA4114
012018010278BRKMB47     070BRKM  FM    PNA     N1000R$  000000000015500000000001550000000000155000000000015500000000001550000000000000000000000000000001000000000000000100000000000000015500000000000457402018021900000010000000000000BRBRKMACNPA4114
012018010282BRKMM43     080BRKME  FM   PNA     N1000R$  000000000003600000000000360000000000036000000000003600000000000360000000000010000000000000000001000000000000001500000000000000054000000000000417402018011500000010000000000000BRBRKMACNPA4114
012018010282BRKMN44     080BRKME  FM   PNA     N1000R$  000000000014400000000001440000000000144000000000014400000000001440000000000029000000000000000002000000000000002300000000000000331200000000000427402018021900000010000000000000BRBRKMACNPA4114
